{
  "_format": "hh-sol-artifact-1",
  "contractName": "Nft",
  "sourceName": "contracts/Nft.sol",
  "abi": [
    {
      "inputs": [],
      "stateMutability": "nonpayable",
      "type": "constructor"
    },
    {
      "anonymous": false,
      "inputs": [
        {
          "indexed": true,
          "internalType": "address",
          "name": "owner",
          "type": "address"
        },
        {
          "indexed": true,
          "internalType": "address",
          "name": "approved",
          "type": "address"
        },
        {
          "indexed": true,
          "internalType": "uint256",
          "name": "tokenId",
          "type": "uint256"
        }
      ],
      "name": "Approval",
      "type": "event"
    },
    {
      "anonymous": false,
      "inputs": [
        {
          "indexed": true,
          "internalType": "address",
          "name": "owner",
          "type": "address"
        },
        {
          "indexed": true,
          "internalType": "address",
          "name": "operator",
          "type": "address"
        },
        {
          "indexed": false,
          "internalType": "bool",
          "name": "approved",
          "type": "bool"
        }
      ],
      "name": "ApprovalForAll",
      "type": "event"
    },
    {
      "anonymous": false,
      "inputs": [
        {
          "indexed": true,
          "internalType": "address",
          "name": "previousOwner",
          "type": "address"
        },
        {
          "indexed": true,
          "internalType": "address",
          "name": "newOwner",
          "type": "address"
        }
      ],
      "name": "OwnershipTransferred",
      "type": "event"
    },
    {
      "anonymous": false,
      "inputs": [
        {
          "indexed": true,
          "internalType": "address",
          "name": "from",
          "type": "address"
        },
        {
          "indexed": true,
          "internalType": "address",
          "name": "to",
          "type": "address"
        },
        {
          "indexed": true,
          "internalType": "uint256",
          "name": "tokenId",
          "type": "uint256"
        }
      ],
      "name": "Transfer",
      "type": "event"
    },
    {
      "inputs": [
        {
          "internalType": "address",
          "name": "to",
          "type": "address"
        },
        {
          "internalType": "uint256",
          "name": "tokenId",
          "type": "uint256"
        }
      ],
      "name": "approve",
      "outputs": [],
      "stateMutability": "nonpayable",
      "type": "function"
    },
    {
      "inputs": [
        {
          "internalType": "address",
          "name": "owner",
          "type": "address"
        }
      ],
      "name": "balanceOf",
      "outputs": [
        {
          "internalType": "uint256",
          "name": "",
          "type": "uint256"
        }
      ],
      "stateMutability": "view",
      "type": "function"
    },
    {
      "inputs": [
        {
          "internalType": "uint256",
          "name": "tokenId",
          "type": "uint256"
        }
      ],
      "name": "getApproved",
      "outputs": [
        {
          "internalType": "address",
          "name": "",
          "type": "address"
        }
      ],
      "stateMutability": "view",
      "type": "function"
    },
    {
      "inputs": [
        {
          "internalType": "address",
          "name": "owner",
          "type": "address"
        },
        {
          "internalType": "address",
          "name": "operator",
          "type": "address"
        }
      ],
      "name": "isApprovedForAll",
      "outputs": [
        {
          "internalType": "bool",
          "name": "",
          "type": "bool"
        }
      ],
      "stateMutability": "view",
      "type": "function"
    },
    {
      "inputs": [
        {
          "internalType": "string",
          "name": "tokenURI",
          "type": "string"
        }
      ],
      "name": "mintNFT",
      "outputs": [
        {
          "internalType": "uint256",
          "name": "",
          "type": "uint256"
        }
      ],
      "stateMutability": "nonpayable",
      "type": "function"
    },
    {
      "inputs": [],
      "name": "name",
      "outputs": [
        {
          "internalType": "string",
          "name": "",
          "type": "string"
        }
      ],
      "stateMutability": "view",
      "type": "function"
    },
    {
      "inputs": [],
      "name": "owner",
      "outputs": [
        {
          "internalType": "address",
          "name": "",
          "type": "address"
        }
      ],
      "stateMutability": "view",
      "type": "function"
    },
    {
      "inputs": [
        {
          "internalType": "uint256",
          "name": "tokenId",
          "type": "uint256"
        }
      ],
      "name": "ownerOf",
      "outputs": [
        {
          "internalType": "address",
          "name": "",
          "type": "address"
        }
      ],
      "stateMutability": "view",
      "type": "function"
    },
    {
      "inputs": [],
      "name": "renounceOwnership",
      "outputs": [],
      "stateMutability": "nonpayable",
      "type": "function"
    },
    {
      "inputs": [
        {
          "internalType": "address",
          "name": "from",
          "type": "address"
        },
        {
          "internalType": "address",
          "name": "to",
          "type": "address"
        },
        {
          "internalType": "uint256",
          "name": "tokenId",
          "type": "uint256"
        }
      ],
      "name": "safeTransferFrom",
      "outputs": [],
      "stateMutability": "nonpayable",
      "type": "function"
    },
    {
      "inputs": [
        {
          "internalType": "address",
          "name": "from",
          "type": "address"
        },
        {
          "internalType": "address",
          "name": "to",
          "type": "address"
        },
        {
          "internalType": "uint256",
          "name": "tokenId",
          "type": "uint256"
        },
        {
          "internalType": "bytes",
          "name": "_data",
          "type": "bytes"
        }
      ],
      "name": "safeTransferFrom",
      "outputs": [],
      "stateMutability": "nonpayable",
      "type": "function"
    },
    {
      "inputs": [
        {
          "internalType": "address",
          "name": "operator",
          "type": "address"
        },
        {
          "internalType": "bool",
          "name": "approved",
          "type": "bool"
        }
      ],
      "name": "setApprovalForAll",
      "outputs": [],
      "stateMutability": "nonpayable",
      "type": "function"
    },
    {
      "inputs": [
        {
          "internalType": "bytes4",
          "name": "interfaceId",
          "type": "bytes4"
        }
      ],
      "name": "supportsInterface",
      "outputs": [
        {
          "internalType": "bool",
          "name": "",
          "type": "bool"
        }
      ],
      "stateMutability": "view",
      "type": "function"
    },
    {
      "inputs": [],
      "name": "symbol",
      "outputs": [
        {
          "internalType": "string",
          "name": "",
          "type": "string"
        }
      ],
      "stateMutability": "view",
      "type": "function"
    },
    {
      "inputs": [
        {
          "internalType": "uint256",
          "name": "tokenId",
          "type": "uint256"
        }
      ],
      "name": "tokenURI",
      "outputs": [
        {
          "internalType": "string",
          "name": "",
          "type": "string"
        }
      ],
      "stateMutability": "view",
      "type": "function"
    },
    {
      "inputs": [
        {
          "internalType": "address",
          "name": "from",
          "type": "address"
        },
        {
          "internalType": "address",
          "name": "to",
          "type": "address"
        },
        {
          "internalType": "uint256",
          "name": "tokenId",
          "type": "uint256"
        }
      ],
      "name": "transferFrom",
      "outputs": [],
      "stateMutability": "nonpayable",
      "type": "function"
    },
    {
      "inputs": [
        {
          "internalType": "address",
          "name": "newOwner",
          "type": "address"
        }
      ],
      "name": "transferOwnership",
      "outputs": [],
      "stateMutability": "nonpayable",
      "type": "function"
    }
  ],
  "bytecode": "0x60806040523480156200001157600080fd5b506040518060400160405280600381526020017f4e667400000000000000000000000000000000000000000000000000000000008152506040518060400160405280600381526020017f4e46540000000000000000000000000000000000000000000000000000000000815250816000908051906020019062000096929190620001a6565b508060019080519060200190620000af929190620001a6565b505050620000d2620000c6620000d860201b60201c565b620000e060201b60201c565b620002bb565b600033905090565b6000600760009054906101000a900473ffffffffffffffffffffffffffffffffffffffff16905081600760006101000a81548173ffffffffffffffffffffffffffffffffffffffff021916908373ffffffffffffffffffffffffffffffffffffffff1602179055508173ffffffffffffffffffffffffffffffffffffffff168173ffffffffffffffffffffffffffffffffffffffff167f8be0079c531659141344cd1fd0a4f28419497f9722a3daafe3b4186f6b6457e060405160405180910390a35050565b828054620001b49062000256565b90600052602060002090601f016020900481019282620001d8576000855562000224565b82601f10620001f357805160ff191683800117855562000224565b8280016001018555821562000224579182015b828111156200022357825182559160200191906001019062000206565b5b50905062000233919062000237565b5090565b5b808211156200025257600081600090555060010162000238565b5090565b600060028204905060018216806200026f57607f821691505b602082108114156200028657620002856200028c565b5b50919050565b7f4e487b7100000000000000000000000000000000000000000000000000000000600052602260045260246000fd5b612f6880620002cb6000396000f3fe608060405234801561001057600080fd5b506004361061010b5760003560e01c8063715018a6116100a2578063b88d4fde11610071578063b88d4fde146102a4578063c87b56dd146102c0578063e985e9c5146102f0578063f2fde38b14610320578063fb37e8831461033c5761010b565b8063715018a6146102425780638da5cb5b1461024c57806395d89b411461026a578063a22cb465146102885761010b565b806323b872dd116100de57806323b872dd146101aa57806342842e0e146101c65780636352211e146101e257806370a08231146102125761010b565b806301ffc9a71461011057806306fdde0314610140578063081812fc1461015e578063095ea7b31461018e575b600080fd5b61012a60048036038101906101259190611e7f565b61036c565b6040516101379190612320565b60405180910390f35b61014861044e565b604051610155919061233b565b60405180910390f35b61017860048036038101906101739190611f22565b6104e0565b60405161018591906122b9565b60405180910390f35b6101a860048036038101906101a39190611e3f565b610565565b005b6101c460048036038101906101bf9190611d29565b61067d565b005b6101e060048036038101906101db9190611d29565b6106dd565b005b6101fc60048036038101906101f79190611f22565b6106fd565b60405161020991906122b9565b60405180910390f35b61022c60048036038101906102279190611cbc565b6107af565b604051610239919061259d565b60405180910390f35b61024a610867565b005b6102546108ef565b60405161026191906122b9565b60405180910390f35b610272610919565b60405161027f919061233b565b60405180910390f35b6102a2600480360381019061029d9190611dff565b6109ab565b005b6102be60048036038101906102b99190611d7c565b610b2c565b005b6102da60048036038101906102d59190611f22565b610b8e565b6040516102e7919061233b565b60405180910390f35b61030a60048036038101906103059190611ce9565b610ce0565b6040516103179190612320565b60405180910390f35b61033a60048036038101906103359190611cbc565b610d74565b005b61035660048036038101906103519190611ed9565b610e6c565b604051610363919061259d565b60405180910390f35b60007f80ac58cd000000000000000000000000000000000000000000000000000000007bffffffffffffffffffffffffffffffffffffffffffffffffffffffff1916827bffffffffffffffffffffffffffffffffffffffffffffffffffffffff1916148061043757507f5b5e139f000000000000000000000000000000000000000000000000000000007bffffffffffffffffffffffffffffffffffffffffffffffffffffffff1916827bffffffffffffffffffffffffffffffffffffffffffffffffffffffff1916145b80610447575061044682610ea9565b5b9050919050565b60606000805461045d906127f3565b80601f0160208091040260200160405190810160405280929190818152602001828054610489906127f3565b80156104d65780601f106104ab576101008083540402835291602001916104d6565b820191906000526020600020905b8154815290600101906020018083116104b957829003601f168201915b5050505050905090565b60006104eb82610f13565b61052a576040517f08c379a0000000000000000000000000000000000000000000000000000000008152600401610521906124dd565b60405180910390fd5b6004600083815260200190815260200160002060009054906101000a900473ffffffffffffffffffffffffffffffffffffffff169050919050565b6000610570826106fd565b90508073ffffffffffffffffffffffffffffffffffffffff168373ffffffffffffffffffffffffffffffffffffffff1614156105e1576040517f08c379a00000000000000000000000000000000000000000000000000000000081526004016105d89061255d565b60405180910390fd5b8073ffffffffffffffffffffffffffffffffffffffff16610600610f7f565b73ffffffffffffffffffffffffffffffffffffffff16148061062f575061062e81610629610f7f565b610ce0565b5b61066e576040517f08c379a00000000000000000000000000000000000000000000000000000000081526004016106659061241d565b60405180910390fd5b6106788383610f87565b505050565b61068e610688610f7f565b82611040565b6106cd576040517f08c379a00000000000000000000000000000000000000000000000000000000081526004016106c49061257d565b60405180910390fd5b6106d883838361111e565b505050565b6106f883838360405180602001604052806000815250610b2c565b505050565b6000806002600084815260200190815260200160002060009054906101000a900473ffffffffffffffffffffffffffffffffffffffff169050600073ffffffffffffffffffffffffffffffffffffffff168173ffffffffffffffffffffffffffffffffffffffff1614156107a6576040517f08c379a000000000000000000000000000000000000000000000000000000000815260040161079d9061245d565b60405180910390fd5b80915050919050565b60008073ffffffffffffffffffffffffffffffffffffffff168273ffffffffffffffffffffffffffffffffffffffff161415610820576040517f08c379a00000000000000000000000000000000000000000000000000000000081526004016108179061243d565b60405180910390fd5b600360008373ffffffffffffffffffffffffffffffffffffffff1673ffffffffffffffffffffffffffffffffffffffff168152602001908152602001600020549050919050565b61086f610f7f565b73ffffffffffffffffffffffffffffffffffffffff1661088d6108ef565b73ffffffffffffffffffffffffffffffffffffffff16146108e3576040517f08c379a00000000000000000000000000000000000000000000000000000000081526004016108da906124fd565b60405180910390fd5b6108ed600061137a565b565b6000600760009054906101000a900473ffffffffffffffffffffffffffffffffffffffff16905090565b606060018054610928906127f3565b80601f0160208091040260200160405190810160405280929190818152602001828054610954906127f3565b80156109a15780601f10610976576101008083540402835291602001916109a1565b820191906000526020600020905b81548152906001019060200180831161098457829003601f168201915b5050505050905090565b6109b3610f7f565b73ffffffffffffffffffffffffffffffffffffffff168273ffffffffffffffffffffffffffffffffffffffff161415610a21576040517f08c379a0000000000000000000000000000000000000000000000000000000008152600401610a18906123dd565b60405180910390fd5b8060056000610a2e610f7f565b73ffffffffffffffffffffffffffffffffffffffff1673ffffffffffffffffffffffffffffffffffffffff16815260200190815260200160002060008473ffffffffffffffffffffffffffffffffffffffff1673ffffffffffffffffffffffffffffffffffffffff16815260200190815260200160002060006101000a81548160ff0219169083151502179055508173ffffffffffffffffffffffffffffffffffffffff16610adb610f7f565b73ffffffffffffffffffffffffffffffffffffffff167f17307eab39ab6107e8899845ad3d59bd9653f200f220920489ca2b5937696c3183604051610b209190612320565b60405180910390a35050565b610b3d610b37610f7f565b83611040565b610b7c576040517f08c379a0000000000000000000000000000000000000000000000000000000008152600401610b739061257d565b60405180910390fd5b610b8884848484611440565b50505050565b6060610b9982610f13565b610bd8576040517f08c379a0000000000000000000000000000000000000000000000000000000008152600401610bcf906124bd565b60405180910390fd5b6000600660008481526020019081526020016000208054610bf8906127f3565b80601f0160208091040260200160405190810160405280929190818152602001828054610c24906127f3565b8015610c715780601f10610c4657610100808354040283529160200191610c71565b820191906000526020600020905b815481529060010190602001808311610c5457829003601f168201915b505050505090506000610c8261149c565b9050600081511415610c98578192505050610cdb565b600082511115610ccd578082604051602001610cb5929190612295565b60405160208183030381529060405292505050610cdb565b610cd6846114b3565b925050505b919050565b6000600560008473ffffffffffffffffffffffffffffffffffffffff1673ffffffffffffffffffffffffffffffffffffffff16815260200190815260200160002060008373ffffffffffffffffffffffffffffffffffffffff1673ffffffffffffffffffffffffffffffffffffffff16815260200190815260200160002060009054906101000a900460ff16905092915050565b610d7c610f7f565b73ffffffffffffffffffffffffffffffffffffffff16610d9a6108ef565b73ffffffffffffffffffffffffffffffffffffffff1614610df0576040517f08c379a0000000000000000000000000000000000000000000000000000000008152600401610de7906124fd565b60405180910390fd5b600073ffffffffffffffffffffffffffffffffffffffff168173ffffffffffffffffffffffffffffffffffffffff161415610e60576040517f08c379a0000000000000000000000000000000000000000000000000000000008152600401610e579061237d565b60405180910390fd5b610e698161137a565b50565b6000610e78600861155a565b60003390506000610e896008611570565b9050610e95828261157e565b610e9f818561174c565b8092505050919050565b60007f01ffc9a7000000000000000000000000000000000000000000000000000000007bffffffffffffffffffffffffffffffffffffffffffffffffffffffff1916827bffffffffffffffffffffffffffffffffffffffffffffffffffffffff1916149050919050565b60008073ffffffffffffffffffffffffffffffffffffffff166002600084815260200190815260200160002060009054906101000a900473ffffffffffffffffffffffffffffffffffffffff1673ffffffffffffffffffffffffffffffffffffffff1614159050919050565b600033905090565b816004600083815260200190815260200160002060006101000a81548173ffffffffffffffffffffffffffffffffffffffff021916908373ffffffffffffffffffffffffffffffffffffffff160217905550808273ffffffffffffffffffffffffffffffffffffffff16610ffa836106fd565b73ffffffffffffffffffffffffffffffffffffffff167f8c5be1e5ebec7d5bd14f71427d1e84f3dd0314c0f7b2291e5b200ac8c7c3b92560405160405180910390a45050565b600061104b82610f13565b61108a576040517f08c379a0000000000000000000000000000000000000000000000000000000008152600401611081906123fd565b60405180910390fd5b6000611095836106fd565b90508073ffffffffffffffffffffffffffffffffffffffff168473ffffffffffffffffffffffffffffffffffffffff16148061110457508373ffffffffffffffffffffffffffffffffffffffff166110ec846104e0565b73ffffffffffffffffffffffffffffffffffffffff16145b8061111557506111148185610ce0565b5b91505092915050565b8273ffffffffffffffffffffffffffffffffffffffff1661113e826106fd565b73ffffffffffffffffffffffffffffffffffffffff1614611194576040517f08c379a000000000000000000000000000000000000000000000000000000000815260040161118b9061251d565b60405180910390fd5b600073ffffffffffffffffffffffffffffffffffffffff168273ffffffffffffffffffffffffffffffffffffffff161415611204576040517f08c379a00000000000000000000000000000000000000000000000000000000081526004016111fb906123bd565b60405180910390fd5b61120f8383836117c0565b61121a600082610f87565b6001600360008573ffffffffffffffffffffffffffffffffffffffff1673ffffffffffffffffffffffffffffffffffffffff168152602001908152602001600020600082825461126a9190612709565b925050819055506001600360008473ffffffffffffffffffffffffffffffffffffffff1673ffffffffffffffffffffffffffffffffffffffff16815260200190815260200160002060008282546112c19190612682565b92505081905550816002600083815260200190815260200160002060006101000a81548173ffffffffffffffffffffffffffffffffffffffff021916908373ffffffffffffffffffffffffffffffffffffffff160217905550808273ffffffffffffffffffffffffffffffffffffffff168473ffffffffffffffffffffffffffffffffffffffff167fddf252ad1be2c89b69c2b068fc378daa952ba7f163c4a11628f55a4df523b3ef60405160405180910390a4505050565b6000600760009054906101000a900473ffffffffffffffffffffffffffffffffffffffff16905081600760006101000a81548173ffffffffffffffffffffffffffffffffffffffff021916908373ffffffffffffffffffffffffffffffffffffffff1602179055508173ffffffffffffffffffffffffffffffffffffffff168173ffffffffffffffffffffffffffffffffffffffff167f8be0079c531659141344cd1fd0a4f28419497f9722a3daafe3b4186f6b6457e060405160405180910390a35050565b61144b84848461111e565b611457848484846117c5565b611496576040517f08c379a000000000000000000000000000000000000000000000000000000000815260040161148d9061235d565b60405180910390fd5b50505050565b606060405180602001604052806000815250905090565b60606114be82610f13565b6114fd576040517f08c379a00000000000000000000000000000000000000000000000000000000081526004016114f49061253d565b60405180910390fd5b600061150761149c565b905060008151116115275760405180602001604052806000815250611552565b806115318461195c565b604051602001611542929190612295565b6040516020818303038152906040525b915050919050565b6001816000016000828254019250508190555050565b600081600001549050919050565b600073ffffffffffffffffffffffffffffffffffffffff168273ffffffffffffffffffffffffffffffffffffffff1614156115ee576040517f08c379a00000000000000000000000000000000000000000000000000000000081526004016115e59061249d565b60405180910390fd5b6115f781610f13565b15611637576040517f08c379a000000000000000000000000000000000000000000000000000000000815260040161162e9061239d565b60405180910390fd5b611643600083836117c0565b6001600360008473ffffffffffffffffffffffffffffffffffffffff1673ffffffffffffffffffffffffffffffffffffffff16815260200190815260200160002060008282546116939190612682565b92505081905550816002600083815260200190815260200160002060006101000a81548173ffffffffffffffffffffffffffffffffffffffff021916908373ffffffffffffffffffffffffffffffffffffffff160217905550808273ffffffffffffffffffffffffffffffffffffffff16600073ffffffffffffffffffffffffffffffffffffffff167fddf252ad1be2c89b69c2b068fc378daa952ba7f163c4a11628f55a4df523b3ef60405160405180910390a45050565b61175582610f13565b611794576040517f08c379a000000000000000000000000000000000000000000000000000000000815260040161178b9061247d565b60405180910390fd5b806006600084815260200190815260200160002090805190602001906117bb929190611ad0565b505050565b505050565b60006117e68473ffffffffffffffffffffffffffffffffffffffff16611abd565b1561194f578373ffffffffffffffffffffffffffffffffffffffff1663150b7a0261180f610f7f565b8786866040518563ffffffff1660e01b815260040161183194939291906122d4565b602060405180830381600087803b15801561184b57600080fd5b505af192505050801561187c57506040513d601f19601f820116820180604052508101906118799190611eac565b60015b6118ff573d80600081146118ac576040519150601f19603f3d011682016040523d82523d6000602084013e6118b1565b606091505b506000815114156118f7576040517f08c379a00000000000000000000000000000000000000000000000000000000081526004016118ee9061235d565b60405180910390fd5b805181602001fd5b63150b7a0260e01b7bffffffffffffffffffffffffffffffffffffffffffffffffffffffff1916817bffffffffffffffffffffffffffffffffffffffffffffffffffffffff191614915050611954565b600190505b949350505050565b606060008214156119a4576040518060400160405280600181526020017f30000000000000000000000000000000000000000000000000000000000000008152509050611ab8565b600082905060005b600082146119d65780806119bf90612856565b915050600a826119cf91906126d8565b91506119ac565b60008167ffffffffffffffff8111156119f2576119f161298c565b5b6040519080825280601f01601f191660200182016040528015611a245781602001600182028036833780820191505090505b5090505b60008514611ab157600182611a3d9190612709565b9150600a85611a4c919061289f565b6030611a589190612682565b60f81b818381518110611a6e57611a6d61295d565b5b60200101907effffffffffffffffffffffffffffffffffffffffffffffffffffffffffffff1916908160001a905350600a85611aaa91906126d8565b9450611a28565b8093505050505b919050565b600080823b905060008111915050919050565b828054611adc906127f3565b90600052602060002090601f016020900481019282611afe5760008555611b45565b82601f10611b1757805160ff1916838001178555611b45565b82800160010185558215611b45579182015b82811115611b44578251825591602001919060010190611b29565b5b509050611b529190611b56565b5090565b5b80821115611b6f576000816000905550600101611b57565b5090565b6000611b86611b81846125dd565b6125b8565b905082815260208101848484011115611ba257611ba16129c0565b5b611bad8482856127b1565b509392505050565b6000611bc8611bc38461260e565b6125b8565b905082815260208101848484011115611be457611be36129c0565b5b611bef8482856127b1565b509392505050565b600081359050611c0681612ed6565b92915050565b600081359050611c1b81612eed565b92915050565b600081359050611c3081612f04565b92915050565b600081519050611c4581612f04565b92915050565b600082601f830112611c6057611c5f6129bb565b5b8135611c70848260208601611b73565b91505092915050565b600082601f830112611c8e57611c8d6129bb565b5b8135611c9e848260208601611bb5565b91505092915050565b600081359050611cb681612f1b565b92915050565b600060208284031215611cd257611cd16129ca565b5b6000611ce084828501611bf7565b91505092915050565b60008060408385031215611d0057611cff6129ca565b5b6000611d0e85828601611bf7565b9250506020611d1f85828601611bf7565b9150509250929050565b600080600060608486031215611d4257611d416129ca565b5b6000611d5086828701611bf7565b9350506020611d6186828701611bf7565b9250506040611d7286828701611ca7565b9150509250925092565b60008060008060808587031215611d9657611d956129ca565b5b6000611da487828801611bf7565b9450506020611db587828801611bf7565b9350506040611dc687828801611ca7565b925050606085013567ffffffffffffffff811115611de757611de66129c5565b5b611df387828801611c4b565b91505092959194509250565b60008060408385031215611e1657611e156129ca565b5b6000611e2485828601611bf7565b9250506020611e3585828601611c0c565b9150509250929050565b60008060408385031215611e5657611e556129ca565b5b6000611e6485828601611bf7565b9250506020611e7585828601611ca7565b9150509250929050565b600060208284031215611e9557611e946129ca565b5b6000611ea384828501611c21565b91505092915050565b600060208284031215611ec257611ec16129ca565b5b6000611ed084828501611c36565b91505092915050565b600060208284031215611eef57611eee6129ca565b5b600082013567ffffffffffffffff811115611f0d57611f0c6129c5565b5b611f1984828501611c79565b91505092915050565b600060208284031215611f3857611f376129ca565b5b6000611f4684828501611ca7565b91505092915050565b611f588161273d565b82525050565b611f678161274f565b82525050565b6000611f788261263f565b611f828185612655565b9350611f928185602086016127c0565b611f9b816129cf565b840191505092915050565b6000611fb18261264a565b611fbb8185612666565b9350611fcb8185602086016127c0565b611fd4816129cf565b840191505092915050565b6000611fea8261264a565b611ff48185612677565b93506120048185602086016127c0565b80840191505092915050565b600061201d603283612666565b9150612028826129e0565b604082019050919050565b6000612040602683612666565b915061204b82612a2f565b604082019050919050565b6000612063601c83612666565b915061206e82612a7e565b602082019050919050565b6000612086602483612666565b915061209182612aa7565b604082019050919050565b60006120a9601983612666565b91506120b482612af6565b602082019050919050565b60006120cc602c83612666565b91506120d782612b1f565b604082019050919050565b60006120ef603883612666565b91506120fa82612b6e565b604082019050919050565b6000612112602a83612666565b915061211d82612bbd565b604082019050919050565b6000612135602983612666565b915061214082612c0c565b604082019050919050565b6000612158602e83612666565b915061216382612c5b565b604082019050919050565b600061217b602083612666565b915061218682612caa565b602082019050919050565b600061219e603183612666565b91506121a982612cd3565b604082019050919050565b60006121c1602c83612666565b91506121cc82612d22565b604082019050919050565b60006121e4602083612666565b91506121ef82612d71565b602082019050919050565b6000612207602983612666565b915061221282612d9a565b604082019050919050565b600061222a602f83612666565b915061223582612de9565b604082019050919050565b600061224d602183612666565b915061225882612e38565b604082019050919050565b6000612270603183612666565b915061227b82612e87565b604082019050919050565b61228f816127a7565b82525050565b60006122a18285611fdf565b91506122ad8284611fdf565b91508190509392505050565b60006020820190506122ce6000830184611f4f565b92915050565b60006080820190506122e96000830187611f4f565b6122f66020830186611f4f565b6123036040830185612286565b81810360608301526123158184611f6d565b905095945050505050565b60006020820190506123356000830184611f5e565b92915050565b600060208201905081810360008301526123558184611fa6565b905092915050565b6000602082019050818103600083015261237681612010565b9050919050565b6000602082019050818103600083015261239681612033565b9050919050565b600060208201905081810360008301526123b681612056565b9050919050565b600060208201905081810360008301526123d681612079565b9050919050565b600060208201905081810360008301526123f68161209c565b9050919050565b60006020820190508181036000830152612416816120bf565b9050919050565b60006020820190508181036000830152612436816120e2565b9050919050565b6000602082019050818103600083015261245681612105565b9050919050565b6000602082019050818103600083015261247681612128565b9050919050565b600060208201905081810360008301526124968161214b565b9050919050565b600060208201905081810360008301526124b68161216e565b9050919050565b600060208201905081810360008301526124d681612191565b9050919050565b600060208201905081810360008301526124f6816121b4565b9050919050565b60006020820190508181036000830152612516816121d7565b9050919050565b60006020820190508181036000830152612536816121fa565b9050919050565b600060208201905081810360008301526125568161221d565b9050919050565b6000602082019050818103600083015261257681612240565b9050919050565b6000602082019050818103600083015261259681612263565b9050919050565b60006020820190506125b26000830184612286565b92915050565b60006125c26125d3565b90506125ce8282612825565b919050565b6000604051905090565b600067ffffffffffffffff8211156125f8576125f761298c565b5b612601826129cf565b9050602081019050919050565b600067ffffffffffffffff8211156126295761262861298c565b5b612632826129cf565b9050602081019050919050565b600081519050919050565b600081519050919050565b600082825260208201905092915050565b600082825260208201905092915050565b600081905092915050565b600061268d826127a7565b9150612698836127a7565b9250827fffffffffffffffffffffffffffffffffffffffffffffffffffffffffffffffff038211156126cd576126cc6128d0565b5b828201905092915050565b60006126e3826127a7565b91506126ee836127a7565b9250826126fe576126fd6128ff565b5b828204905092915050565b6000612714826127a7565b915061271f836127a7565b925082821015612732576127316128d0565b5b828203905092915050565b600061274882612787565b9050919050565b60008115159050919050565b60007fffffffff0000000000000000000000000000000000000000000000000000000082169050919050565b600073ffffffffffffffffffffffffffffffffffffffff82169050919050565b6000819050919050565b82818337600083830152505050565b60005b838110156127de5780820151818401526020810190506127c3565b838111156127ed576000848401525b50505050565b6000600282049050600182168061280b57607f821691505b6020821081141561281f5761281e61292e565b5b50919050565b61282e826129cf565b810181811067ffffffffffffffff8211171561284d5761284c61298c565b5b80604052505050565b6000612861826127a7565b91507fffffffffffffffffffffffffffffffffffffffffffffffffffffffffffffffff821415612894576128936128d0565b5b600182019050919050565b60006128aa826127a7565b91506128b5836127a7565b9250826128c5576128c46128ff565b5b828206905092915050565b7f4e487b7100000000000000000000000000000000000000000000000000000000600052601160045260246000fd5b7f4e487b7100000000000000000000000000000000000000000000000000000000600052601260045260246000fd5b7f4e487b7100000000000000000000000000000000000000000000000000000000600052602260045260246000fd5b7f4e487b7100000000000000000000000000000000000000000000000000000000600052603260045260246000fd5b7f4e487b7100000000000000000000000000000000000000000000000000000000600052604160045260246000fd5b600080fd5b600080fd5b600080fd5b600080fd5b6000601f19601f8301169050919050565b7f4552433732313a207472616e7366657220746f206e6f6e20455243373231526560008201527f63656976657220696d706c656d656e7465720000000000000000000000000000602082015250565b7f4f776e61626c653a206e6577206f776e657220697320746865207a65726f206160008201527f6464726573730000000000000000000000000000000000000000000000000000602082015250565b7f4552433732313a20746f6b656e20616c7265616479206d696e74656400000000600082015250565b7f4552433732313a207472616e7366657220746f20746865207a65726f2061646460008201527f7265737300000000000000000000000000000000000000000000000000000000602082015250565b7f4552433732313a20617070726f766520746f2063616c6c657200000000000000600082015250565b7f4552433732313a206f70657261746f7220717565727920666f72206e6f6e657860008201527f697374656e7420746f6b656e0000000000000000000000000000000000000000602082015250565b7f4552433732313a20617070726f76652063616c6c6572206973206e6f74206f7760008201527f6e6572206e6f7220617070726f76656420666f7220616c6c0000000000000000602082015250565b7f4552433732313a2062616c616e636520717565727920666f7220746865207a6560008201527f726f206164647265737300000000000000000000000000000000000000000000602082015250565b7f4552433732313a206f776e657220717565727920666f72206e6f6e657869737460008201527f656e7420746f6b656e0000000000000000000000000000000000000000000000602082015250565b7f45524337323155524953746f726167653a2055524920736574206f66206e6f6e60008201527f6578697374656e7420746f6b656e000000000000000000000000000000000000602082015250565b7f4552433732313a206d696e7420746f20746865207a65726f2061646472657373600082015250565b7f45524337323155524953746f726167653a2055524920717565727920666f722060008201527f6e6f6e6578697374656e7420746f6b656e000000000000000000000000000000602082015250565b7f4552433732313a20617070726f76656420717565727920666f72206e6f6e657860008201527f697374656e7420746f6b656e0000000000000000000000000000000000000000602082015250565b7f4f776e61626c653a2063616c6c6572206973206e6f7420746865206f776e6572600082015250565b7f4552433732313a207472616e73666572206f6620746f6b656e2074686174206960008201527f73206e6f74206f776e0000000000000000000000000000000000000000000000602082015250565b7f4552433732314d657461646174613a2055524920717565727920666f72206e6f60008201527f6e6578697374656e7420746f6b656e0000000000000000000000000000000000602082015250565b7f4552433732313a20617070726f76616c20746f2063757272656e74206f776e6560008201527f7200000000000000000000000000000000000000000000000000000000000000602082015250565b7f4552433732313a207472616e736665722063616c6c6572206973206e6f74206f60008201527f776e6572206e6f7220617070726f766564000000000000000000000000000000602082015250565b612edf8161273d565b8114612eea57600080fd5b50565b612ef68161274f565b8114612f0157600080fd5b50565b612f0d8161275b565b8114612f1857600080fd5b50565b612f24816127a7565b8114612f2f57600080fd5b5056fea264697066735822122023034c579a834492f0334ecf11e07b5fefeeb0b9b59c082f6f974a517e11af7c64736f6c63430008070033",
  "linkReferences": {},
  "deployedLinkReferences": {}
}