{
  "_format": "hh-sol-artifact-1",
  "contractName": "tzNFT",
  "sourceName": "contracts/tzNFT.sol",
  "abi": [
    {
      "inputs": [],
      "stateMutability": "nonpayable",
      "type": "constructor"
    },
    {
      "anonymous": false,
      "inputs": [
        {
          "indexed": true,
          "internalType": "address",
          "name": "owner",
          "type": "address"
        },
        {
          "indexed": true,
          "internalType": "address",
          "name": "approved",
          "type": "address"
        },
        {
          "indexed": true,
          "internalType": "uint256",
          "name": "tokenId",
          "type": "uint256"
        }
      ],
      "name": "Approval",
      "type": "event"
    },
    {
      "anonymous": false,
      "inputs": [
        {
          "indexed": true,
          "internalType": "address",
          "name": "owner",
          "type": "address"
        },
        {
          "indexed": true,
          "internalType": "address",
          "name": "operator",
          "type": "address"
        },
        {
          "indexed": false,
          "internalType": "bool",
          "name": "approved",
          "type": "bool"
        }
      ],
      "name": "ApprovalForAll",
      "type": "event"
    },
    {
      "anonymous": false,
      "inputs": [
        {
          "indexed": false,
          "internalType": "address",
          "name": "recipient",
          "type": "address"
        },
        {
          "indexed": false,
          "internalType": "uint256",
          "name": "tokenId",
          "type": "uint256"
        }
      ],
      "name": "OwnershipAssigned",
      "type": "event"
    },
    {
      "anonymous": false,
      "inputs": [
        {
          "indexed": false,
          "internalType": "address",
          "name": "from",
          "type": "address"
        },
        {
          "indexed": false,
          "internalType": "uint256",
          "name": "tolenId",
          "type": "uint256"
        }
      ],
      "name": "OwnershipRemoved",
      "type": "event"
    },
    {
      "anonymous": false,
      "inputs": [
        {
          "indexed": true,
          "internalType": "address",
          "name": "previousOwner",
          "type": "address"
        },
        {
          "indexed": true,
          "internalType": "address",
          "name": "newOwner",
          "type": "address"
        }
      ],
      "name": "OwnershipTransferred",
      "type": "event"
    },
    {
      "anonymous": false,
      "inputs": [
        {
          "indexed": true,
          "internalType": "address",
          "name": "from",
          "type": "address"
        },
        {
          "indexed": true,
          "internalType": "address",
          "name": "to",
          "type": "address"
        },
        {
          "indexed": true,
          "internalType": "uint256",
          "name": "tokenId",
          "type": "uint256"
        }
      ],
      "name": "Transfer",
      "type": "event"
    },
    {
      "inputs": [
        {
          "internalType": "address",
          "name": "to",
          "type": "address"
        },
        {
          "internalType": "uint256",
          "name": "tokenId",
          "type": "uint256"
        }
      ],
      "name": "approve",
      "outputs": [],
      "stateMutability": "nonpayable",
      "type": "function"
    },
    {
      "inputs": [
        {
          "internalType": "address",
          "name": "owner",
          "type": "address"
        }
      ],
      "name": "balanceOf",
      "outputs": [
        {
          "internalType": "uint256",
          "name": "",
          "type": "uint256"
        }
      ],
      "stateMutability": "view",
      "type": "function"
    },
    {
      "inputs": [
        {
          "internalType": "uint256",
          "name": "tokenId",
          "type": "uint256"
        }
      ],
      "name": "burnTzNFT",
      "outputs": [],
      "stateMutability": "nonpayable",
      "type": "function"
    },
    {
      "inputs": [
        {
          "internalType": "uint256",
          "name": "tokenId",
          "type": "uint256"
        }
      ],
      "name": "getApproved",
      "outputs": [
        {
          "internalType": "address",
          "name": "",
          "type": "address"
        }
      ],
      "stateMutability": "view",
      "type": "function"
    },
    {
      "inputs": [],
      "name": "getUserNFTs",
      "outputs": [
        {
          "internalType": "string[]",
          "name": "tokenURIs",
          "type": "string[]"
        },
        {
          "internalType": "uint256[]",
          "name": "tokenIds",
          "type": "uint256[]"
        }
      ],
      "stateMutability": "view",
      "type": "function"
    },
    {
      "inputs": [
        {
          "internalType": "address",
          "name": "owner",
          "type": "address"
        },
        {
          "internalType": "address",
          "name": "operator",
          "type": "address"
        }
      ],
      "name": "isApprovedForAll",
      "outputs": [
        {
          "internalType": "bool",
          "name": "",
          "type": "bool"
        }
      ],
      "stateMutability": "view",
      "type": "function"
    },
    {
      "inputs": [
        {
          "internalType": "address",
          "name": "recipient",
          "type": "address"
        },
        {
          "internalType": "string",
          "name": "tokenURI",
          "type": "string"
        }
      ],
      "name": "mintTzNFT",
      "outputs": [
        {
          "internalType": "uint256",
          "name": "",
          "type": "uint256"
        }
      ],
      "stateMutability": "nonpayable",
      "type": "function"
    },
    {
      "inputs": [],
      "name": "name",
      "outputs": [
        {
          "internalType": "string",
          "name": "",
          "type": "string"
        }
      ],
      "stateMutability": "view",
      "type": "function"
    },
    {
      "inputs": [],
      "name": "owner",
      "outputs": [
        {
          "internalType": "address",
          "name": "",
          "type": "address"
        }
      ],
      "stateMutability": "view",
      "type": "function"
    },
    {
      "inputs": [
        {
          "internalType": "uint256",
          "name": "tokenId",
          "type": "uint256"
        }
      ],
      "name": "ownerOf",
      "outputs": [
        {
          "internalType": "address",
          "name": "",
          "type": "address"
        }
      ],
      "stateMutability": "view",
      "type": "function"
    },
    {
      "inputs": [],
      "name": "renounceOwnership",
      "outputs": [],
      "stateMutability": "nonpayable",
      "type": "function"
    },
    {
      "inputs": [
        {
          "internalType": "address",
          "name": "from",
          "type": "address"
        },
        {
          "internalType": "address",
          "name": "to",
          "type": "address"
        },
        {
          "internalType": "uint256",
          "name": "tokenId",
          "type": "uint256"
        }
      ],
      "name": "safeTransferFrom",
      "outputs": [],
      "stateMutability": "nonpayable",
      "type": "function"
    },
    {
      "inputs": [
        {
          "internalType": "address",
          "name": "from",
          "type": "address"
        },
        {
          "internalType": "address",
          "name": "to",
          "type": "address"
        },
        {
          "internalType": "uint256",
          "name": "tokenId",
          "type": "uint256"
        },
        {
          "internalType": "bytes",
          "name": "_data",
          "type": "bytes"
        }
      ],
      "name": "safeTransferFrom",
      "outputs": [],
      "stateMutability": "nonpayable",
      "type": "function"
    },
    {
      "inputs": [
        {
          "internalType": "address",
          "name": "operator",
          "type": "address"
        },
        {
          "internalType": "bool",
          "name": "approved",
          "type": "bool"
        }
      ],
      "name": "setApprovalForAll",
      "outputs": [],
      "stateMutability": "nonpayable",
      "type": "function"
    },
    {
      "inputs": [
        {
          "internalType": "bytes4",
          "name": "interfaceId",
          "type": "bytes4"
        }
      ],
      "name": "supportsInterface",
      "outputs": [
        {
          "internalType": "bool",
          "name": "",
          "type": "bool"
        }
      ],
      "stateMutability": "view",
      "type": "function"
    },
    {
      "inputs": [],
      "name": "symbol",
      "outputs": [
        {
          "internalType": "string",
          "name": "",
          "type": "string"
        }
      ],
      "stateMutability": "view",
      "type": "function"
    },
    {
      "inputs": [
        {
          "internalType": "uint256",
          "name": "tokenId",
          "type": "uint256"
        }
      ],
      "name": "tokenURI",
      "outputs": [
        {
          "internalType": "string",
          "name": "",
          "type": "string"
        }
      ],
      "stateMutability": "view",
      "type": "function"
    },
    {
      "inputs": [
        {
          "internalType": "address",
          "name": "from",
          "type": "address"
        },
        {
          "internalType": "address",
          "name": "to",
          "type": "address"
        },
        {
          "internalType": "uint256",
          "name": "tokenId",
          "type": "uint256"
        }
      ],
      "name": "transferFrom",
      "outputs": [],
      "stateMutability": "nonpayable",
      "type": "function"
    },
    {
      "inputs": [
        {
          "internalType": "address",
          "name": "newOwner",
          "type": "address"
        }
      ],
      "name": "transferOwnership",
      "outputs": [],
      "stateMutability": "nonpayable",
      "type": "function"
    }
  ],
  "bytecode": "0x60806040523480156200001157600080fd5b506040518060400160405280600581526020017f747a4e46540000000000000000000000000000000000000000000000000000008152506040518060400160405280600381526020017f4e46540000000000000000000000000000000000000000000000000000000000815250816000908051906020019062000096929190620001a6565b508060019080519060200190620000af929190620001a6565b505050620000d2620000c6620000d860201b60201c565b620000e060201b60201c565b620002bb565b600033905090565b6000600760009054906101000a900473ffffffffffffffffffffffffffffffffffffffff16905081600760006101000a81548173ffffffffffffffffffffffffffffffffffffffff021916908373ffffffffffffffffffffffffffffffffffffffff1602179055508173ffffffffffffffffffffffffffffffffffffffff168173ffffffffffffffffffffffffffffffffffffffff167f8be0079c531659141344cd1fd0a4f28419497f9722a3daafe3b4186f6b6457e060405160405180910390a35050565b828054620001b49062000256565b90600052602060002090601f016020900481019282620001d8576000855562000224565b82601f10620001f357805160ff191683800117855562000224565b8280016001018555821562000224579182015b828111156200022357825182559160200191906001019062000206565b5b50905062000233919062000237565b5090565b5b808211156200025257600081600090555060010162000238565b5090565b600060028204905060018216806200026f57607f821691505b602082108114156200028657620002856200028c565b5b50919050565b7f4e487b7100000000000000000000000000000000000000000000000000000000600052602260045260246000fd5b61396280620002cb6000396000f3fe608060405234801561001057600080fd5b50600436106101215760003560e01c8063715018a6116100ad578063b88d4fde11610071578063b88d4fde14610306578063c87b56dd14610322578063e985e9c514610352578063f2fde38b14610382578063fdc5ab8e1461039e57610121565b8063715018a6146102745780638da5cb5b1461027e57806395d89b411461029c578063a19b73cf146102ba578063a22cb465146102ea57610121565b8063095ea7b3116100f4578063095ea7b3146101c057806323b872dd146101dc57806342842e0e146101f85780636352211e1461021457806370a082311461024457610121565b806301ffc9a71461012657806303853d5e1461015657806306fdde0314610172578063081812fc14610190575b600080fd5b610140600480360381019061013b9190612669565b6103bd565b60405161014d9190612c68565b60405180910390f35b610170600480360381019061016b91906126c3565b61049f565b005b61017a6104bd565b6040516101879190612c83565b60405180910390f35b6101aa60048036038101906101a591906126c3565b61054f565b6040516101b79190612ba1565b60405180910390f35b6101da60048036038101906101d59190612629565b6105d4565b005b6101f660048036038101906101f191906124b7565b6106ec565b005b610212600480360381019061020d91906124b7565b61074c565b005b61022e600480360381019061022991906126c3565b61076c565b60405161023b9190612ba1565b60405180910390f35b61025e6004803603810190610259919061244a565b61081e565b60405161026b9190612ee5565b60405180910390f35b61027c6108d6565b005b61028661095e565b6040516102939190612ba1565b60405180910390f35b6102a4610988565b6040516102b19190612c83565b60405180910390f35b6102d460048036038101906102cf91906125cd565b610a1a565b6040516102e19190612ee5565b60405180910390f35b61030460048036038101906102ff919061258d565b610ad8565b005b610320600480360381019061031b919061250a565b610c59565b005b61033c600480360381019061033791906126c3565b610cbb565b6040516103499190612c83565b60405180910390f35b61036c60048036038101906103679190612477565b610e0d565b6040516103799190612c68565b60405180910390f35b61039c6004803603810190610397919061244a565b610ea1565b005b6103a6610f99565b6040516103b4929190612c31565b60405180910390f35b60007f80ac58cd000000000000000000000000000000000000000000000000000000007bffffffffffffffffffffffffffffffffffffffffffffffffffffffff1916827bffffffffffffffffffffffffffffffffffffffffffffffffffffffff1916148061048857507f5b5e139f000000000000000000000000000000000000000000000000000000007bffffffffffffffffffffffffffffffffffffffffffffffffffffffff1916827bffffffffffffffffffffffffffffffffffffffffffffffffffffffff1916145b8061049857506104978261110b565b5b9050919050565b6104a881611175565b6104ba6104b48261076c565b826111c8565b50565b6060600080546104cc906131be565b80601f01602080910402602001604051908101604052809291908181526020018280546104f8906131be565b80156105455780601f1061051a57610100808354040283529160200191610545565b820191906000526020600020905b81548152906001019060200180831161052857829003601f168201915b5050505050905090565b600061055a82611257565b610599576040517f08c379a000000000000000000000000000000000000000000000000000000000815260040161059090612e25565b60405180910390fd5b6004600083815260200190815260200160002060009054906101000a900473ffffffffffffffffffffffffffffffffffffffff169050919050565b60006105df8261076c565b90508073ffffffffffffffffffffffffffffffffffffffff168373ffffffffffffffffffffffffffffffffffffffff161415610650576040517f08c379a000000000000000000000000000000000000000000000000000000000815260040161064790612ea5565b60405180910390fd5b8073ffffffffffffffffffffffffffffffffffffffff1661066f6112c3565b73ffffffffffffffffffffffffffffffffffffffff16148061069e575061069d816106986112c3565b610e0d565b5b6106dd576040517f08c379a00000000000000000000000000000000000000000000000000000000081526004016106d490612d65565b60405180910390fd5b6106e783836112cb565b505050565b6106fd6106f76112c3565b82611384565b61073c576040517f08c379a000000000000000000000000000000000000000000000000000000000815260040161073390612ec5565b60405180910390fd5b610747838383611462565b505050565b61076783838360405180602001604052806000815250610c59565b505050565b6000806002600084815260200190815260200160002060009054906101000a900473ffffffffffffffffffffffffffffffffffffffff169050600073ffffffffffffffffffffffffffffffffffffffff168173ffffffffffffffffffffffffffffffffffffffff161415610815576040517f08c379a000000000000000000000000000000000000000000000000000000000815260040161080c90612da5565b60405180910390fd5b80915050919050565b60008073ffffffffffffffffffffffffffffffffffffffff168273ffffffffffffffffffffffffffffffffffffffff16141561088f576040517f08c379a000000000000000000000000000000000000000000000000000000000815260040161088690612d85565b60405180910390fd5b600360008373ffffffffffffffffffffffffffffffffffffffff1673ffffffffffffffffffffffffffffffffffffffff168152602001908152602001600020549050919050565b6108de6112c3565b73ffffffffffffffffffffffffffffffffffffffff166108fc61095e565b73ffffffffffffffffffffffffffffffffffffffff1614610952576040517f08c379a000000000000000000000000000000000000000000000000000000000815260040161094990612e45565b60405180910390fd5b61095c60006116be565b565b6000600760009054906101000a900473ffffffffffffffffffffffffffffffffffffffff16905090565b606060018054610997906131be565b80601f01602080910402602001604051908101604052809291908181526020018280546109c3906131be565b8015610a105780601f106109e557610100808354040283529160200191610a10565b820191906000526020600020905b8154815290600101906020018083116109f357829003601f168201915b5050505050905090565b6000610a246112c3565b73ffffffffffffffffffffffffffffffffffffffff16610a4261095e565b73ffffffffffffffffffffffffffffffffffffffff1614610a98576040517f08c379a0000000000000000000000000000000000000000000000000000000008152600401610a8f90612e45565b60405180910390fd5b610aa26008611784565b6000610aae600861179a565b9050610aba84826117a8565b610ac48184611976565b610ace84826119ea565b8091505092915050565b610ae06112c3565b73ffffffffffffffffffffffffffffffffffffffff168273ffffffffffffffffffffffffffffffffffffffff161415610b4e576040517f08c379a0000000000000000000000000000000000000000000000000000000008152600401610b4590612d25565b60405180910390fd5b8060056000610b5b6112c3565b73ffffffffffffffffffffffffffffffffffffffff1673ffffffffffffffffffffffffffffffffffffffff16815260200190815260200160002060008473ffffffffffffffffffffffffffffffffffffffff1673ffffffffffffffffffffffffffffffffffffffff16815260200190815260200160002060006101000a81548160ff0219169083151502179055508173ffffffffffffffffffffffffffffffffffffffff16610c086112c3565b73ffffffffffffffffffffffffffffffffffffffff167f17307eab39ab6107e8899845ad3d59bd9653f200f220920489ca2b5937696c3183604051610c4d9190612c68565b60405180910390a35050565b610c6a610c646112c3565b83611384565b610ca9576040517f08c379a0000000000000000000000000000000000000000000000000000000008152600401610ca090612ec5565b60405180910390fd5b610cb584848484611a79565b50505050565b6060610cc682611257565b610d05576040517f08c379a0000000000000000000000000000000000000000000000000000000008152600401610cfc90612e05565b60405180910390fd5b6000600660008481526020019081526020016000208054610d25906131be565b80601f0160208091040260200160405190810160405280929190818152602001828054610d51906131be565b8015610d9e5780601f10610d7357610100808354040283529160200191610d9e565b820191906000526020600020905b815481529060010190602001808311610d8157829003601f168201915b505050505090506000610daf611ad5565b9050600081511415610dc5578192505050610e08565b600082511115610dfa578082604051602001610de2929190612b7d565b60405160208183030381529060405292505050610e08565b610e0384611aec565b925050505b919050565b6000600560008473ffffffffffffffffffffffffffffffffffffffff1673ffffffffffffffffffffffffffffffffffffffff16815260200190815260200160002060008373ffffffffffffffffffffffffffffffffffffffff1673ffffffffffffffffffffffffffffffffffffffff16815260200190815260200160002060009054906101000a900460ff16905092915050565b610ea96112c3565b73ffffffffffffffffffffffffffffffffffffffff16610ec761095e565b73ffffffffffffffffffffffffffffffffffffffff1614610f1d576040517f08c379a0000000000000000000000000000000000000000000000000000000008152600401610f1490612e45565b60405180910390fd5b600073ffffffffffffffffffffffffffffffffffffffff168173ffffffffffffffffffffffffffffffffffffffff161415610f8d576040517f08c379a0000000000000000000000000000000000000000000000000000000008152600401610f8490612cc5565b60405180910390fd5b610f96816116be565b50565b6060806000600960003373ffffffffffffffffffffffffffffffffffffffff1673ffffffffffffffffffffffffffffffffffffffff16815260200190815260200160002090506000610fea82611b93565b90508067ffffffffffffffff81111561100657611005613386565b5b60405190808252806020026020018201604052801561103957816020015b60608152602001906001900390816110245790505b5093508067ffffffffffffffff81111561105657611055613386565b5b6040519080825280602002602001820160405280156110845781602001602082028036833780820191505090505b50925060005b818110156111045760006110a78285611ba890919063ffffffff16565b90506110b281610cbb565b8683815181106110c5576110c4613357565b5b6020026020010181905250808583815181106110e4576110e3613357565b5b6020026020010181815250505080806110fc90613221565b91505061108a565b5050509091565b60007f01ffc9a7000000000000000000000000000000000000000000000000000000007bffffffffffffffffffffffffffffffffffffffffffffffffffffffff1916827bffffffffffffffffffffffffffffffffffffffffffffffffffffffff1916149050919050565b61117e81611bc2565b600060066000838152602001908152602001600020805461119e906131be565b9050146111c5576006600082815260200190815260200160002060006111c4919061221e565b5b50565b61121981600960008573ffffffffffffffffffffffffffffffffffffffff1673ffffffffffffffffffffffffffffffffffffffff168152602001908152602001600020611cd390919063ffffffff16565b507f0741a1fb5cc3163b6a00ee6c48fb096bcc0b6a33b4fc08d9b54a01d222e5b797828260405161124b929190612c08565b60405180910390a15050565b60008073ffffffffffffffffffffffffffffffffffffffff166002600084815260200190815260200160002060009054906101000a900473ffffffffffffffffffffffffffffffffffffffff1673ffffffffffffffffffffffffffffffffffffffff1614159050919050565b600033905090565b816004600083815260200190815260200160002060006101000a81548173ffffffffffffffffffffffffffffffffffffffff021916908373ffffffffffffffffffffffffffffffffffffffff160217905550808273ffffffffffffffffffffffffffffffffffffffff1661133e8361076c565b73ffffffffffffffffffffffffffffffffffffffff167f8c5be1e5ebec7d5bd14f71427d1e84f3dd0314c0f7b2291e5b200ac8c7c3b92560405160405180910390a45050565b600061138f82611257565b6113ce576040517f08c379a00000000000000000000000000000000000000000000000000000000081526004016113c590612d45565b60405180910390fd5b60006113d98361076c565b90508073ffffffffffffffffffffffffffffffffffffffff168473ffffffffffffffffffffffffffffffffffffffff16148061144857508373ffffffffffffffffffffffffffffffffffffffff166114308461054f565b73ffffffffffffffffffffffffffffffffffffffff16145b8061145957506114588185610e0d565b5b91505092915050565b8273ffffffffffffffffffffffffffffffffffffffff166114828261076c565b73ffffffffffffffffffffffffffffffffffffffff16146114d8576040517f08c379a00000000000000000000000000000000000000000000000000000000081526004016114cf90612e65565b60405180910390fd5b600073ffffffffffffffffffffffffffffffffffffffff168273ffffffffffffffffffffffffffffffffffffffff161415611548576040517f08c379a000000000000000000000000000000000000000000000000000000000815260040161153f90612d05565b60405180910390fd5b611553838383611ced565b61155e6000826112cb565b6001600360008573ffffffffffffffffffffffffffffffffffffffff1673ffffffffffffffffffffffffffffffffffffffff16815260200190815260200160002060008282546115ae91906130d4565b925050819055506001600360008473ffffffffffffffffffffffffffffffffffffffff1673ffffffffffffffffffffffffffffffffffffffff1681526020019081526020016000206000828254611605919061304d565b92505081905550816002600083815260200190815260200160002060006101000a81548173ffffffffffffffffffffffffffffffffffffffff021916908373ffffffffffffffffffffffffffffffffffffffff160217905550808273ffffffffffffffffffffffffffffffffffffffff168473ffffffffffffffffffffffffffffffffffffffff167fddf252ad1be2c89b69c2b068fc378daa952ba7f163c4a11628f55a4df523b3ef60405160405180910390a4505050565b6000600760009054906101000a900473ffffffffffffffffffffffffffffffffffffffff16905081600760006101000a81548173ffffffffffffffffffffffffffffffffffffffff021916908373ffffffffffffffffffffffffffffffffffffffff1602179055508173ffffffffffffffffffffffffffffffffffffffff168173ffffffffffffffffffffffffffffffffffffffff167f8be0079c531659141344cd1fd0a4f28419497f9722a3daafe3b4186f6b6457e060405160405180910390a35050565b6001816000016000828254019250508190555050565b600081600001549050919050565b600073ffffffffffffffffffffffffffffffffffffffff168273ffffffffffffffffffffffffffffffffffffffff161415611818576040517f08c379a000000000000000000000000000000000000000000000000000000000815260040161180f90612de5565b60405180910390fd5b61182181611257565b15611861576040517f08c379a000000000000000000000000000000000000000000000000000000000815260040161185890612ce5565b60405180910390fd5b61186d60008383611ced565b6001600360008473ffffffffffffffffffffffffffffffffffffffff1673ffffffffffffffffffffffffffffffffffffffff16815260200190815260200160002060008282546118bd919061304d565b92505081905550816002600083815260200190815260200160002060006101000a81548173ffffffffffffffffffffffffffffffffffffffff021916908373ffffffffffffffffffffffffffffffffffffffff160217905550808273ffffffffffffffffffffffffffffffffffffffff16600073ffffffffffffffffffffffffffffffffffffffff167fddf252ad1be2c89b69c2b068fc378daa952ba7f163c4a11628f55a4df523b3ef60405160405180910390a45050565b61197f82611257565b6119be576040517f08c379a00000000000000000000000000000000000000000000000000000000081526004016119b590612dc5565b60405180910390fd5b806006600084815260200190815260200160002090805190602001906119e592919061225e565b505050565b611a3b81600960008573ffffffffffffffffffffffffffffffffffffffff1673ffffffffffffffffffffffffffffffffffffffff168152602001908152602001600020611d1190919063ffffffff16565b507fd1244c76f9eb91663982648fe47acfdbadfc1150327bd90dda349051df7a25898282604051611a6d929190612c08565b60405180910390a15050565b611a84848484611462565b611a9084848484611d2b565b611acf576040517f08c379a0000000000000000000000000000000000000000000000000000000008152600401611ac690612ca5565b60405180910390fd5b50505050565b606060405180602001604052806000815250905090565b6060611af782611257565b611b36576040517f08c379a0000000000000000000000000000000000000000000000000000000008152600401611b2d90612e85565b60405180910390fd5b6000611b40611ad5565b90506000815111611b605760405180602001604052806000815250611b8b565b80611b6a84611ec2565b604051602001611b7b929190612b7d565b6040516020818303038152906040525b915050919050565b6000611ba182600001612023565b9050919050565b6000611bb78360000183612034565b60001c905092915050565b6000611bcd8261076c565b9050611bdb81600084611ced565b611be66000836112cb565b6001600360008373ffffffffffffffffffffffffffffffffffffffff1673ffffffffffffffffffffffffffffffffffffffff1681526020019081526020016000206000828254611c3691906130d4565b925050819055506002600083815260200190815260200160002060006101000a81549073ffffffffffffffffffffffffffffffffffffffff021916905581600073ffffffffffffffffffffffffffffffffffffffff168273ffffffffffffffffffffffffffffffffffffffff167fddf252ad1be2c89b69c2b068fc378daa952ba7f163c4a11628f55a4df523b3ef60405160405180910390a45050565b6000611ce5836000018360001b61205f565b905092915050565b611cf8838383612173565b611d0283826111c8565b611d0c82826119ea565b505050565b6000611d23836000018360001b612178565b905092915050565b6000611d4c8473ffffffffffffffffffffffffffffffffffffffff166121e8565b15611eb5578373ffffffffffffffffffffffffffffffffffffffff1663150b7a02611d756112c3565b8786866040518563ffffffff1660e01b8152600401611d979493929190612bbc565b602060405180830381600087803b158015611db157600080fd5b505af1925050508015611de257506040513d601f19601f82011682018060405250810190611ddf9190612696565b60015b611e65573d8060008114611e12576040519150601f19603f3d011682016040523d82523d6000602084013e611e17565b606091505b50600081511415611e5d576040517f08c379a0000000000000000000000000000000000000000000000000000000008152600401611e5490612ca5565b60405180910390fd5b805181602001fd5b63150b7a0260e01b7bffffffffffffffffffffffffffffffffffffffffffffffffffffffff1916817bffffffffffffffffffffffffffffffffffffffffffffffffffffffff191614915050611eba565b600190505b949350505050565b60606000821415611f0a576040518060400160405280600181526020017f3000000000000000000000000000000000000000000000000000000000000000815250905061201e565b600082905060005b60008214611f3c578080611f2590613221565b915050600a82611f3591906130a3565b9150611f12565b60008167ffffffffffffffff811115611f5857611f57613386565b5b6040519080825280601f01601f191660200182016040528015611f8a5781602001600182028036833780820191505090505b5090505b6000851461201757600182611fa391906130d4565b9150600a85611fb2919061326a565b6030611fbe919061304d565b60f81b818381518110611fd457611fd3613357565b5b60200101907effffffffffffffffffffffffffffffffffffffffffffffffffffffffffffff1916908160001a905350600a8561201091906130a3565b9450611f8e565b8093505050505b919050565b600081600001805490509050919050565b600082600001828154811061204c5761204b613357565b5b9060005260206000200154905092915050565b6000808360010160008481526020019081526020016000205490506000811461216757600060018261209191906130d4565b90506000600186600001805490506120a991906130d4565b90508181146121185760008660000182815481106120ca576120c9613357565b5b90600052602060002001549050808760000184815481106120ee576120ed613357565b5b90600052602060002001819055508387600101600083815260200190815260200160002081905550505b8560000180548061212c5761212b613328565b5b60019003818190600052602060002001600090559055856001016000868152602001908152602001600020600090556001935050505061216d565b60009150505b92915050565b505050565b600061218483836121fb565b6121dd5782600001829080600181540180825580915050600190039060005260206000200160009091909190915055826000018054905083600101600084815260200190815260200160002081905550600190506121e2565b600090505b92915050565b600080823b905060008111915050919050565b600080836001016000848152602001908152602001600020541415905092915050565b50805461222a906131be565b6000825580601f1061223c575061225b565b601f01602090049060005260206000209081019061225a91906122e4565b5b50565b82805461226a906131be565b90600052602060002090601f01602090048101928261228c57600085556122d3565b82601f106122a557805160ff19168380011785556122d3565b828001600101855582156122d3579182015b828111156122d25782518255916020019190600101906122b7565b5b5090506122e091906122e4565b5090565b5b808211156122fd5760008160009055506001016122e5565b5090565b600061231461230f84612f25565b612f00565b9050828152602081018484840111156123305761232f6133ba565b5b61233b84828561317c565b509392505050565b600061235661235184612f56565b612f00565b905082815260208101848484011115612372576123716133ba565b5b61237d84828561317c565b509392505050565b600081359050612394816138d0565b92915050565b6000813590506123a9816138e7565b92915050565b6000813590506123be816138fe565b92915050565b6000815190506123d3816138fe565b92915050565b600082601f8301126123ee576123ed6133b5565b5b81356123fe848260208601612301565b91505092915050565b600082601f83011261241c5761241b6133b5565b5b813561242c848260208601612343565b91505092915050565b60008135905061244481613915565b92915050565b6000602082840312156124605761245f6133c4565b5b600061246e84828501612385565b91505092915050565b6000806040838503121561248e5761248d6133c4565b5b600061249c85828601612385565b92505060206124ad85828601612385565b9150509250929050565b6000806000606084860312156124d0576124cf6133c4565b5b60006124de86828701612385565b93505060206124ef86828701612385565b925050604061250086828701612435565b9150509250925092565b60008060008060808587031215612524576125236133c4565b5b600061253287828801612385565b945050602061254387828801612385565b935050604061255487828801612435565b925050606085013567ffffffffffffffff811115612575576125746133bf565b5b612581878288016123d9565b91505092959194509250565b600080604083850312156125a4576125a36133c4565b5b60006125b285828601612385565b92505060206125c38582860161239a565b9150509250929050565b600080604083850312156125e4576125e36133c4565b5b60006125f285828601612385565b925050602083013567ffffffffffffffff811115612613576126126133bf565b5b61261f85828601612407565b9150509250929050565b600080604083850312156126405761263f6133c4565b5b600061264e85828601612385565b925050602061265f85828601612435565b9150509250929050565b60006020828403121561267f5761267e6133c4565b5b600061268d848285016123af565b91505092915050565b6000602082840312156126ac576126ab6133c4565b5b60006126ba848285016123c4565b91505092915050565b6000602082840312156126d9576126d86133c4565b5b60006126e784828501612435565b91505092915050565b60006126fc8383612846565b905092915050565b60006127108383612b5f565b60208301905092915050565b61272581613108565b82525050565b600061273682612fa7565b6127408185612fed565b93508360208202850161275285612f87565b8060005b8581101561278e578484038952815161276f85826126f0565b945061277a83612fd3565b925060208a01995050600181019050612756565b50829750879550505050505092915050565b60006127ab82612fb2565b6127b58185612ffe565b93506127c083612f97565b8060005b838110156127f15781516127d88882612704565b97506127e383612fe0565b9250506001810190506127c4565b5085935050505092915050565b6128078161311a565b82525050565b600061281882612fbd565b612822818561300f565b935061283281856020860161318b565b61283b816133c9565b840191505092915050565b600061285182612fc8565b61285b8185613020565b935061286b81856020860161318b565b612874816133c9565b840191505092915050565b600061288a82612fc8565b6128948185613031565b93506128a481856020860161318b565b6128ad816133c9565b840191505092915050565b60006128c382612fc8565b6128cd8185613042565b93506128dd81856020860161318b565b80840191505092915050565b60006128f6603283613031565b9150612901826133da565b604082019050919050565b6000612919602683613031565b915061292482613429565b604082019050919050565b600061293c601c83613031565b915061294782613478565b602082019050919050565b600061295f602483613031565b915061296a826134a1565b604082019050919050565b6000612982601983613031565b915061298d826134f0565b602082019050919050565b60006129a5602c83613031565b91506129b082613519565b604082019050919050565b60006129c8603883613031565b91506129d382613568565b604082019050919050565b60006129eb602a83613031565b91506129f6826135b7565b604082019050919050565b6000612a0e602983613031565b9150612a1982613606565b604082019050919050565b6000612a31602e83613031565b9150612a3c82613655565b604082019050919050565b6000612a54602083613031565b9150612a5f826136a4565b602082019050919050565b6000612a77603183613031565b9150612a82826136cd565b604082019050919050565b6000612a9a602c83613031565b9150612aa58261371c565b604082019050919050565b6000612abd602083613031565b9150612ac88261376b565b602082019050919050565b6000612ae0602983613031565b9150612aeb82613794565b604082019050919050565b6000612b03602f83613031565b9150612b0e826137e3565b604082019050919050565b6000612b26602183613031565b9150612b3182613832565b604082019050919050565b6000612b49603183613031565b9150612b5482613881565b604082019050919050565b612b6881613172565b82525050565b612b7781613172565b82525050565b6000612b8982856128b8565b9150612b9582846128b8565b91508190509392505050565b6000602082019050612bb6600083018461271c565b92915050565b6000608082019050612bd1600083018761271c565b612bde602083018661271c565b612beb6040830185612b6e565b8181036060830152612bfd818461280d565b905095945050505050565b6000604082019050612c1d600083018561271c565b612c2a6020830184612b6e565b9392505050565b60006040820190508181036000830152612c4b818561272b565b90508181036020830152612c5f81846127a0565b90509392505050565b6000602082019050612c7d60008301846127fe565b92915050565b60006020820190508181036000830152612c9d818461287f565b905092915050565b60006020820190508181036000830152612cbe816128e9565b9050919050565b60006020820190508181036000830152612cde8161290c565b9050919050565b60006020820190508181036000830152612cfe8161292f565b9050919050565b60006020820190508181036000830152612d1e81612952565b9050919050565b60006020820190508181036000830152612d3e81612975565b9050919050565b60006020820190508181036000830152612d5e81612998565b9050919050565b60006020820190508181036000830152612d7e816129bb565b9050919050565b60006020820190508181036000830152612d9e816129de565b9050919050565b60006020820190508181036000830152612dbe81612a01565b9050919050565b60006020820190508181036000830152612dde81612a24565b9050919050565b60006020820190508181036000830152612dfe81612a47565b9050919050565b60006020820190508181036000830152612e1e81612a6a565b9050919050565b60006020820190508181036000830152612e3e81612a8d565b9050919050565b60006020820190508181036000830152612e5e81612ab0565b9050919050565b60006020820190508181036000830152612e7e81612ad3565b9050919050565b60006020820190508181036000830152612e9e81612af6565b9050919050565b60006020820190508181036000830152612ebe81612b19565b9050919050565b60006020820190508181036000830152612ede81612b3c565b9050919050565b6000602082019050612efa6000830184612b6e565b92915050565b6000612f0a612f1b565b9050612f1682826131f0565b919050565b6000604051905090565b600067ffffffffffffffff821115612f4057612f3f613386565b5b612f49826133c9565b9050602081019050919050565b600067ffffffffffffffff821115612f7157612f70613386565b5b612f7a826133c9565b9050602081019050919050565b6000819050602082019050919050565b6000819050602082019050919050565b600081519050919050565b600081519050919050565b600081519050919050565b600081519050919050565b6000602082019050919050565b6000602082019050919050565b600082825260208201905092915050565b600082825260208201905092915050565b600082825260208201905092915050565b600082825260208201905092915050565b600082825260208201905092915050565b600081905092915050565b600061305882613172565b915061306383613172565b9250827fffffffffffffffffffffffffffffffffffffffffffffffffffffffffffffffff038211156130985761309761329b565b5b828201905092915050565b60006130ae82613172565b91506130b983613172565b9250826130c9576130c86132ca565b5b828204905092915050565b60006130df82613172565b91506130ea83613172565b9250828210156130fd576130fc61329b565b5b828203905092915050565b600061311382613152565b9050919050565b60008115159050919050565b60007fffffffff0000000000000000000000000000000000000000000000000000000082169050919050565b600073ffffffffffffffffffffffffffffffffffffffff82169050919050565b6000819050919050565b82818337600083830152505050565b60005b838110156131a957808201518184015260208101905061318e565b838111156131b8576000848401525b50505050565b600060028204905060018216806131d657607f821691505b602082108114156131ea576131e96132f9565b5b50919050565b6131f9826133c9565b810181811067ffffffffffffffff8211171561321857613217613386565b5b80604052505050565b600061322c82613172565b91507fffffffffffffffffffffffffffffffffffffffffffffffffffffffffffffffff82141561325f5761325e61329b565b5b600182019050919050565b600061327582613172565b915061328083613172565b9250826132905761328f6132ca565b5b828206905092915050565b7f4e487b7100000000000000000000000000000000000000000000000000000000600052601160045260246000fd5b7f4e487b7100000000000000000000000000000000000000000000000000000000600052601260045260246000fd5b7f4e487b7100000000000000000000000000000000000000000000000000000000600052602260045260246000fd5b7f4e487b7100000000000000000000000000000000000000000000000000000000600052603160045260246000fd5b7f4e487b7100000000000000000000000000000000000000000000000000000000600052603260045260246000fd5b7f4e487b7100000000000000000000000000000000000000000000000000000000600052604160045260246000fd5b600080fd5b600080fd5b600080fd5b600080fd5b6000601f19601f8301169050919050565b7f4552433732313a207472616e7366657220746f206e6f6e20455243373231526560008201527f63656976657220696d706c656d656e7465720000000000000000000000000000602082015250565b7f4f776e61626c653a206e6577206f776e657220697320746865207a65726f206160008201527f6464726573730000000000000000000000000000000000000000000000000000602082015250565b7f4552433732313a20746f6b656e20616c7265616479206d696e74656400000000600082015250565b7f4552433732313a207472616e7366657220746f20746865207a65726f2061646460008201527f7265737300000000000000000000000000000000000000000000000000000000602082015250565b7f4552433732313a20617070726f766520746f2063616c6c657200000000000000600082015250565b7f4552433732313a206f70657261746f7220717565727920666f72206e6f6e657860008201527f697374656e7420746f6b656e0000000000000000000000000000000000000000602082015250565b7f4552433732313a20617070726f76652063616c6c6572206973206e6f74206f7760008201527f6e6572206e6f7220617070726f76656420666f7220616c6c0000000000000000602082015250565b7f4552433732313a2062616c616e636520717565727920666f7220746865207a6560008201527f726f206164647265737300000000000000000000000000000000000000000000602082015250565b7f4552433732313a206f776e657220717565727920666f72206e6f6e657869737460008201527f656e7420746f6b656e0000000000000000000000000000000000000000000000602082015250565b7f45524337323155524953746f726167653a2055524920736574206f66206e6f6e60008201527f6578697374656e7420746f6b656e000000000000000000000000000000000000602082015250565b7f4552433732313a206d696e7420746f20746865207a65726f2061646472657373600082015250565b7f45524337323155524953746f726167653a2055524920717565727920666f722060008201527f6e6f6e6578697374656e7420746f6b656e000000000000000000000000000000602082015250565b7f4552433732313a20617070726f76656420717565727920666f72206e6f6e657860008201527f697374656e7420746f6b656e0000000000000000000000000000000000000000602082015250565b7f4f776e61626c653a2063616c6c6572206973206e6f7420746865206f776e6572600082015250565b7f4552433732313a207472616e73666572206f6620746f6b656e2074686174206960008201527f73206e6f74206f776e0000000000000000000000000000000000000000000000602082015250565b7f4552433732314d657461646174613a2055524920717565727920666f72206e6f60008201527f6e6578697374656e7420746f6b656e0000000000000000000000000000000000602082015250565b7f4552433732313a20617070726f76616c20746f2063757272656e74206f776e6560008201527f7200000000000000000000000000000000000000000000000000000000000000602082015250565b7f4552433732313a207472616e736665722063616c6c6572206973206e6f74206f60008201527f776e6572206e6f7220617070726f766564000000000000000000000000000000602082015250565b6138d981613108565b81146138e457600080fd5b50565b6138f08161311a565b81146138fb57600080fd5b50565b61390781613126565b811461391257600080fd5b50565b61391e81613172565b811461392957600080fd5b5056fea264697066735822122081ab8df1ff9d0cab766d1723b418568c70e58fc7632b2d5259e73acfa8ceb87164736f6c63430008060033",
  "linkReferences": {},
  "deployedLinkReferences": {}
}